{
  "abi": [
    {
      "type": "constructor",
      "inputs": [
        {
          "name": "_pairWhitelist",
          "type": "address",
          "internalType": "address"
        },
        {
          "name": "_treasury",
          "type": "address",
          "internalType": "address"
        },
        {
          "name": "_saucerswapRouter",
          "type": "address",
          "internalType": "address"
        },
        {
          "name": "_parameterStore",
          "type": "address",
          "internalType": "address"
        },
        {
          "name": "_admin",
          "type": "address",
          "internalType": "address"
        },
        {
          "name": "_initialTraders",
          "type": "address[]",
          "internalType": "address[]"
        }
      ],
      "stateMutability": "nonpayable"
    },
    {
      "type": "function",
      "name": "DAO_ROLE",
      "inputs": [],
      "outputs": [
        {
          "name": "",
          "type": "bytes32",
          "internalType": "bytes32"
        }
      ],
      "stateMutability": "view"
    },
    {
      "type": "function",
      "name": "DEFAULT_ADMIN_ROLE",
      "inputs": [],
      "outputs": [
        {
          "name": "",
          "type": "bytes32",
          "internalType": "bytes32"
        }
      ],
      "stateMutability": "view"
    },
    {
      "type": "function",
      "name": "PAIR_WHITELIST",
      "inputs": [],
      "outputs": [
        {
          "name": "",
          "type": "address",
          "internalType": "contract PairWhitelist"
        }
      ],
      "stateMutability": "view"
    },
    {
      "type": "function",
      "name": "PARAM_STORE",
      "inputs": [],
      "outputs": [
        {
          "name": "",
          "type": "address",
          "internalType": "contract ParameterStore"
        }
      ],
      "stateMutability": "view"
    },
    {
      "type": "function",
      "name": "SAUCERSWAP_ROUTER",
      "inputs": [],
      "outputs": [
        {
          "name": "",
          "type": "address",
          "internalType": "contract ISaucerswapRouter"
        }
      ],
      "stateMutability": "view"
    },
    {
      "type": "function",
      "name": "TRADER_ROLE",
      "inputs": [],
      "outputs": [
        {
          "name": "",
          "type": "bytes32",
          "internalType": "bytes32"
        }
      ],
      "stateMutability": "view"
    },
    {
      "type": "function",
      "name": "TREASURY",
      "inputs": [],
      "outputs": [
        {
          "name": "",
          "type": "address",
          "internalType": "contract Treasury"
        }
      ],
      "stateMutability": "view"
    },
    {
      "type": "function",
      "name": "VALIDATORS",
      "inputs": [
        {
          "name": "",
          "type": "uint256",
          "internalType": "uint256"
        }
      ],
      "outputs": [
        {
          "name": "",
          "type": "address",
          "internalType": "contract ITradeValidator"
        }
      ],
      "stateMutability": "view"
    },
    {
      "type": "function",
      "name": "addValidator",
      "inputs": [
        {
          "name": "validator",
          "type": "address",
          "internalType": "address"
        }
      ],
      "outputs": [],
      "stateMutability": "nonpayable"
    },
    {
      "type": "function",
      "name": "authorizeTrader",
      "inputs": [
        {
          "name": "trader",
          "type": "address",
          "internalType": "address"
        }
      ],
      "outputs": [],
      "stateMutability": "nonpayable"
    },
    {
      "type": "function",
      "name": "getCooldownRemaining",
      "inputs": [],
      "outputs": [
        {
          "name": "",
          "type": "uint256",
          "internalType": "uint256"
        }
      ],
      "stateMutability": "view"
    },
    {
      "type": "function",
      "name": "getMaxAllowedTradeAmount",
      "inputs": [
        {
          "name": "tokenIn",
          "type": "address",
          "internalType": "address"
        }
      ],
      "outputs": [
        {
          "name": "maxAllowedAmount",
          "type": "uint256",
          "internalType": "uint256"
        }
      ],
      "stateMutability": "view"
    },
    {
      "type": "function",
      "name": "getRiskParameters",
      "inputs": [],
      "outputs": [
        {
          "name": "_maxTradeBps",
          "type": "uint256",
          "internalType": "uint256"
        },
        {
          "name": "_maxSlippageBps",
          "type": "uint256",
          "internalType": "uint256"
        },
        {
          "name": "_tradeCooldownSec",
          "type": "uint256",
          "internalType": "uint256"
        },
        {
          "name": "_lastTradeTimestamp",
          "type": "uint256",
          "internalType": "uint256"
        }
      ],
      "stateMutability": "view"
    },
    {
      "type": "function",
      "name": "getRoleAdmin",
      "inputs": [
        {
          "name": "role",
          "type": "bytes32",
          "internalType": "bytes32"
        }
      ],
      "outputs": [
        {
          "name": "",
          "type": "bytes32",
          "internalType": "bytes32"
        }
      ],
      "stateMutability": "view"
    },
    {
      "type": "function",
      "name": "grantRole",
      "inputs": [
        {
          "name": "role",
          "type": "bytes32",
          "internalType": "bytes32"
        },
        {
          "name": "account",
          "type": "address",
          "internalType": "address"
        }
      ],
      "outputs": [],
      "stateMutability": "nonpayable"
    },
    {
      "type": "function",
      "name": "hasRole",
      "inputs": [
        {
          "name": "role",
          "type": "bytes32",
          "internalType": "bytes32"
        },
        {
          "name": "account",
          "type": "address",
          "internalType": "address"
        }
      ],
      "outputs": [
        {
          "name": "",
          "type": "bool",
          "internalType": "bool"
        }
      ],
      "stateMutability": "view"
    },
    {
      "type": "function",
      "name": "lastTradeTimestamp",
      "inputs": [],
      "outputs": [
        {
          "name": "",
          "type": "uint256",
          "internalType": "uint256"
        }
      ],
      "stateMutability": "view"
    },
    {
      "type": "function",
      "name": "proposeBuybackAndBurn",
      "inputs": [
        {
          "name": "tokenIn",
          "type": "address",
          "internalType": "address"
        },
        {
          "name": "amountIn",
          "type": "uint256",
          "internalType": "uint256"
        },
        {
          "name": "minAmountOut",
          "type": "uint256",
          "internalType": "uint256"
        },
        {
          "name": "deadline",
          "type": "uint256",
          "internalType": "uint256"
        }
      ],
      "outputs": [
        {
          "name": "burnedAmount",
          "type": "uint256",
          "internalType": "uint256"
        },
        {
          "name": "reasonCodes",
          "type": "bytes32[]",
          "internalType": "bytes32[]"
        }
      ],
      "stateMutability": "nonpayable"
    },
    {
      "type": "function",
      "name": "proposeSwap",
      "inputs": [
        {
          "name": "tokenIn",
          "type": "address",
          "internalType": "address"
        },
        {
          "name": "tokenOut",
          "type": "address",
          "internalType": "address"
        },
        {
          "name": "amountIn",
          "type": "uint256",
          "internalType": "uint256"
        },
        {
          "name": "minAmountOut",
          "type": "uint256",
          "internalType": "uint256"
        },
        {
          "name": "deadline",
          "type": "uint256",
          "internalType": "uint256"
        }
      ],
      "outputs": [
        {
          "name": "amountOut",
          "type": "uint256",
          "internalType": "uint256"
        },
        {
          "name": "reasonCodes",
          "type": "bytes32[]",
          "internalType": "bytes32[]"
        }
      ],
      "stateMutability": "nonpayable"
    },
    {
      "type": "function",
      "name": "removeValidator",
      "inputs": [
        {
          "name": "validator",
          "type": "address",
          "internalType": "address"
        }
      ],
      "outputs": [],
      "stateMutability": "nonpayable"
    },
    {
      "type": "function",
      "name": "renounceRole",
      "inputs": [
        {
          "name": "role",
          "type": "bytes32",
          "internalType": "bytes32"
        },
        {
          "name": "callerConfirmation",
          "type": "address",
          "internalType": "address"
        }
      ],
      "outputs": [],
      "stateMutability": "nonpayable"
    },
    {
      "type": "function",
      "name": "revokeRole",
      "inputs": [
        {
          "name": "role",
          "type": "bytes32",
          "internalType": "bytes32"
        },
        {
          "name": "account",
          "type": "address",
          "internalType": "address"
        }
      ],
      "outputs": [],
      "stateMutability": "nonpayable"
    },
    {
      "type": "function",
      "name": "revokeTrader",
      "inputs": [
        {
          "name": "trader",
          "type": "address",
          "internalType": "address"
        }
      ],
      "outputs": [],
      "stateMutability": "nonpayable"
    },
    {
      "type": "function",
      "name": "supportsInterface",
      "inputs": [
        {
          "name": "interfaceId",
          "type": "bytes4",
          "internalType": "bytes4"
        }
      ],
      "outputs": [
        {
          "name": "",
          "type": "bool",
          "internalType": "bool"
        }
      ],
      "stateMutability": "view"
    },
    {
      "type": "event",
      "name": "RoleAdminChanged",
      "inputs": [
        {
          "name": "role",
          "type": "bytes32",
          "indexed": true,
          "internalType": "bytes32"
        },
        {
          "name": "previousAdminRole",
          "type": "bytes32",
          "indexed": true,
          "internalType": "bytes32"
        },
        {
          "name": "newAdminRole",
          "type": "bytes32",
          "indexed": true,
          "internalType": "bytes32"
        }
      ],
      "anonymous": false
    },
    {
      "type": "event",
      "name": "RoleGranted",
      "inputs": [
        {
          "name": "role",
          "type": "bytes32",
          "indexed": true,
          "internalType": "bytes32"
        },
        {
          "name": "account",
          "type": "address",
          "indexed": true,
          "internalType": "address"
        },
        {
          "name": "sender",
          "type": "address",
          "indexed": true,
          "internalType": "address"
        }
      ],
      "anonymous": false
    },
    {
      "type": "event",
      "name": "RoleRevoked",
      "inputs": [
        {
          "name": "role",
          "type": "bytes32",
          "indexed": true,
          "internalType": "bytes32"
        },
        {
          "name": "account",
          "type": "address",
          "indexed": true,
          "internalType": "address"
        },
        {
          "name": "sender",
          "type": "address",
          "indexed": true,
          "internalType": "address"
        }
      ],
      "anonymous": false
    },
    {
      "type": "event",
      "name": "TradeApproved",
      "inputs": [
        {
          "name": "trader",
          "type": "address",
          "indexed": true,
          "internalType": "address"
        },
        {
          "name": "tradeType",
          "type": "uint8",
          "indexed": true,
          "internalType": "enum Relay.TradeType"
        },
        {
          "name": "tokenIn",
          "type": "address",
          "indexed": false,
          "internalType": "address"
        },
        {
          "name": "tokenOut",
          "type": "address",
          "indexed": false,
          "internalType": "address"
        },
        {
          "name": "amountIn",
          "type": "uint256",
          "indexed": false,
          "internalType": "uint256"
        },
        {
          "name": "minAmountOut",
          "type": "uint256",
          "indexed": false,
          "internalType": "uint256"
        },
        {
          "name": "treasuryBalance",
          "type": "uint256",
          "indexed": false,
          "internalType": "uint256"
        },
        {
          "name": "maxTradeBps",
          "type": "uint256",
          "indexed": false,
          "internalType": "uint256"
        },
        {
          "name": "maxSlippageBps",
          "type": "uint256",
          "indexed": false,
          "internalType": "uint256"
        },
        {
          "name": "timestamp",
          "type": "uint256",
          "indexed": false,
          "internalType": "uint256"
        }
      ],
      "anonymous": false
    },
    {
      "type": "event",
      "name": "TradeForwarded",
      "inputs": [
        {
          "name": "trader",
          "type": "address",
          "indexed": true,
          "internalType": "address"
        },
        {
          "name": "tradeType",
          "type": "uint8",
          "indexed": true,
          "internalType": "enum Relay.TradeType"
        },
        {
          "name": "tokenIn",
          "type": "address",
          "indexed": false,
          "internalType": "address"
        },
        {
          "name": "tokenOut",
          "type": "address",
          "indexed": false,
          "internalType": "address"
        },
        {
          "name": "amountIn",
          "type": "uint256",
          "indexed": false,
          "internalType": "uint256"
        },
        {
          "name": "amountOut",
          "type": "uint256",
          "indexed": false,
          "internalType": "uint256"
        },
        {
          "name": "timestamp",
          "type": "uint256",
          "indexed": false,
          "internalType": "uint256"
        }
      ],
      "anonymous": false
    },
    {
      "type": "event",
      "name": "TradeProposed",
      "inputs": [
        {
          "name": "trader",
          "type": "address",
          "indexed": true,
          "internalType": "address"
        },
        {
          "name": "tradeType",
          "type": "uint8",
          "indexed": true,
          "internalType": "enum Relay.TradeType"
        },
        {
          "name": "tokenIn",
          "type": "address",
          "indexed": true,
          "internalType": "address"
        },
        {
          "name": "tokenOut",
          "type": "address",
          "indexed": false,
          "internalType": "address"
        },
        {
          "name": "amountIn",
          "type": "uint256",
          "indexed": false,
          "internalType": "uint256"
        },
        {
          "name": "minAmountOut",
          "type": "uint256",
          "indexed": false,
          "internalType": "uint256"
        },
        {
          "name": "timestamp",
          "type": "uint256",
          "indexed": false,
          "internalType": "uint256"
        }
      ],
      "anonymous": false
    },
    {
      "type": "event",
      "name": "TradeValidationFailed",
      "inputs": [
        {
          "name": "trader",
          "type": "address",
          "indexed": true,
          "internalType": "address"
        },
        {
          "name": "tokenIn",
          "type": "address",
          "indexed": false,
          "internalType": "address"
        },
        {
          "name": "tokenOut",
          "type": "address",
          "indexed": false,
          "internalType": "address"
        },
        {
          "name": "amountIn",
          "type": "uint256",
          "indexed": false,
          "internalType": "uint256"
        },
        {
          "name": "minAmountOut",
          "type": "uint256",
          "indexed": false,
          "internalType": "uint256"
        },
        {
          "name": "maxTradeBps",
          "type": "uint256",
          "indexed": false,
          "internalType": "uint256"
        },
        {
          "name": "maxSlippageBps",
          "type": "uint256",
          "indexed": false,
          "internalType": "uint256"
        },
        {
          "name": "cooldownRemaining",
          "type": "uint256",
          "indexed": false,
          "internalType": "uint256"
        },
        {
          "name": "reasonCodes",
          "type": "bytes32[]",
          "indexed": false,
          "internalType": "bytes32[]"
        },
        {
          "name": "timestamp",
          "type": "uint256",
          "indexed": false,
          "internalType": "uint256"
        }
      ],
      "anonymous": false
    },
    {
      "type": "event",
      "name": "TraderAuthorized",
      "inputs": [
        {
          "name": "trader",
          "type": "address",
          "indexed": true,
          "internalType": "address"
        },
        {
          "name": "timestamp",
          "type": "uint256",
          "indexed": false,
          "internalType": "uint256"
        }
      ],
      "anonymous": false
    },
    {
      "type": "event",
      "name": "TraderRevoked",
      "inputs": [
        {
          "name": "trader",
          "type": "address",
          "indexed": true,
          "internalType": "address"
        },
        {
          "name": "timestamp",
          "type": "uint256",
          "indexed": false,
          "internalType": "uint256"
        }
      ],
      "anonymous": false
    },
    {
      "type": "error",
      "name": "AccessControlBadConfirmation",
      "inputs": []
    },
    {
      "type": "error",
      "name": "AccessControlUnauthorizedAccount",
      "inputs": [
        {
          "name": "account",
          "type": "address",
          "internalType": "address"
        },
        {
          "name": "neededRole",
          "type": "bytes32",
          "internalType": "bytes32"
        }
      ]
    },
    {
      "type": "error",
      "name": "ReentrancyGuardReentrantCall",
      "inputs": []
    }
  ],
  "bytecode": {
    "object": "0x6040610100815234610445576125e5908138038061001c8161045d565b93843982019160c0818403126104455761003581610482565b602090610043828401610482565b9261004f858201610482565b9361005c60608301610482565b61006860808401610482565b9760a084015160018060401b0394858211610445570181601f82011215610445578051948511610449578460051b9087806100a481850161045d565b8098815201928201019283116104455787809101915b83831061042d575050505060019560017f9b779b17422d0df92223018b32b4d1fa46e071723d6817e2486d003becc55f005560018060a01b038095169283156103e95785169081156103a557851691821561036157851692831561031d57858a16156102d957845115610295579161014b9391889a9360805260a05260c05260e052610145816104be565b5061052a565b505f955b6101da575b8451611f449081610661823960805181818161064f0152611719015260a0518181816101660152818161093501528181610c59015281816111d70152611773015260c0518181816102800152611dc7015260e0518181816101ae015281816103f7015281816109a101528181610fdb015281816115fd0152818161164b01526116a00152f35b805186101561029057816101ee8783610496565b51161561024c57838661020e8461020784999a86610496565b51166105c8565b508361021a8285610496565b51167fc83da1d5e2f1980ac7d406b167deadbaea0c16ae7cf9990923c4b52fde147d15868a51428152a201959461014f565b845162461bcd60e51b815260048101849052601560248201527f52656c61793a20496e76616c69642074726164657200000000000000000000006044820152606490fd5b610154565b885162461bcd60e51b815260048101889052601960248201527f52656c61793a204e6f20696e697469616c2074726164657273000000000000006044820152606490fd5b885162461bcd60e51b815260048101889052601460248201527f52656c61793a20496e76616c69642061646d696e0000000000000000000000006044820152606490fd5b885162461bcd60e51b815260048101889052601e60248201527f52656c61793a20496e76616c696420706172616d657465722073746f726500006044820152606490fd5b885162461bcd60e51b815260048101889052601560248201527f52656c61793a20496e76616c696420726f7574657200000000000000000000006044820152606490fd5b885162461bcd60e51b815260048101889052601760248201527f52656c61793a20496e76616c69642074726561737572790000000000000000006044820152606490fd5b885162461bcd60e51b815260048101889052601860248201527f52656c61793a20496e76616c69642077686974656c69737400000000000000006044820152606490fd5b819061043884610482565b81520191019087906100ba565b5f80fd5b634e487b7160e01b5f52604160045260245ffd5b6040519190601f01601f191682016001600160401b0381118382101761044957604052565b51906001600160a01b038216820361044557565b80518210156104aa5760209160051b010190565b634e487b7160e01b5f52603260045260245ffd5b6001600160a01b03165f8181525f805160206125c5833981519152602052604090205460ff16610525575f8181525f805160206125c583398151915260205260408120805460ff191660011790553391905f805160206125a58339815191528180a4600190565b505f90565b6001600160a01b03165f8181527fc39f11a9300b508470eaed31f5842ba08c93181bcbe6a7fe34039aa7f2b8074260205260409020547f3b5d4cc60d3ec3516ee8ae083bd60934f6eb2a6c54b1229985c41bfb092b2603919060ff166105c257815f525f60205260405f20815f5260205260405f20600160ff1982541617905533915f805160206125a58339815191525f80a4600190565b50505f90565b6001600160a01b03165f8181527f6ac0a3cc639bf037b4b0f42fc91a4de27374e7898883f5a05dc61a01ae17095560205260409020547ffacaf2747a7486cf5730e9265973fb54447d3ace6e7e4711f6360826b0731941919060ff166105c257815f525f60205260405f20815f5260205260405f20600160ff1982541617905533915f805160206125a58339815191525f80a460019056fe6080604081815260049182361015610015575f80fd5b5f3560e01c90816301ffc9a714610a2f57508063158bf337146109ee57806319f18dee146109d05780631ef9c1991461098d578063248a9ca3146109645780632d2c5565146109215780632d89fd5d146108fe5780632f2ff15d146108d657806336568abe1461089257806340a141ff146108695780634d238c8e1461072257806357b79a231461067e57806360ffe87e1461063b5780636a418fcb146105d857806391d14854146105955780639f2842b214610555578063a217fddf1461053b578063ba94626c146103d4578063d1b092a71461034b578063d547741f14610310578063e9c26518146102d6578063f0a56fc8146102af578063fb5a252d1461026c5763fc72a61a14610127575f80fd5b3461021c576020918260031936011261021c57610142610a81565b825163f8b2cb4f60e01b81526001600160a01b0391821681840152919084836024817f000000000000000000000000000000000000000000000000000000000000000085165afa928315610262579085915f94610231575b508451634656988b60e01b815292839182907f0000000000000000000000000000000000000000000000000000000000000000165afa908115610227575f916101f4575b506101ec9061271092611436565b049051908152f35b90508381813d8311610220575b61020b8183610b76565b8101031261021c57516127106101de565b5f80fd5b503d610201565b83513d5f823e3d90fd5b8281939295503d831161025b575b6102498183610b76565b8101031261021c57849051925f61019a565b503d61023f565b84513d5f823e3d90fd5b503461021c575f36600319011261021c57517f00000000000000000000000000000000000000000000000000000000000000006001600160a01b03168152602090f35b503461021c575f36600319011261021c57602090515f80516020611eef8339815191528152f35b503461021c575f36600319011261021c57602090517f3b5d4cc60d3ec3516ee8ae083bd60934f6eb2a6c54b1229985c41bfb092b26038152f35b503461021c578060031936011261021c5761034991356103446001610333610a97565b93835f525f6020525f20015461150a565b611cbd565b005b503461021c5760a036600319011261021c576103d061039461036b610a81565b610373610a97565b61037b611449565b61038361152b565b608435916064359160443591611165565b60017f9b779b17422d0df92223018b32b4d1fa46e071723d6817e2486d003becc55f009392935583519384938452806020850152830190610aad565b0390f35b503461021c575f36600319011261021c578051634656988b60e01b8152906020907f00000000000000000000000000000000000000000000000000000000000000006001600160a01b03169082848681855afa9384156104c7575f9461050c575b50805163c4aa739560e01b81529183838781845afa928315610502579084915f946104d1575b5082516338f3180960e11b815296879182905afa9182156104c7575f92610497575b608095506001549382519586528501528301526060820152f35b91508285813d83116104c0575b6104ae8183610b76565b8101031261021c57608094519161047d565b503d6104a4565b50513d5f823e3d90fd5b8281939295503d83116104fb575b6104e98183610b76565b8101031261021c57839051925f61045b565b503d6104df565b82513d5f823e3d90fd5b9093508281813d8311610534575b6105248183610b76565b8101031261021c5751925f610435565b503d61051a565b503461021c575f36600319011261021c57602090515f8152f35b50903461021c57602036600319011261021c57359060025482101561021c5761057f602092610ae0565b905491519160018060a01b039160031b1c168152f35b503461021c578060031936011261021c576020916105b1610a97565b90355f525f8352815f209060018060a01b03165f52825260ff815f20541690519015158152f35b503461021c57602036600319011261021c577f58a973300efb4582e6dcdc0429cf2fc9ce1aa3b14f7f0aa4cfcee3e8316c524d6020610615610a81565b9261061e6114af565b61062784611c27565b50514281526001600160a01b0390931692a2005b503461021c575f36600319011261021c57517f00000000000000000000000000000000000000000000000000000000000000006001600160a01b03168152602090f35b503461021c57602036600319011261021c57610698610a81565b6106a06114af565b6001600160a01b0381169283156106e757507fc83da1d5e2f1980ac7d406b167deadbaea0c16ae7cf9990923c4b52fde147d15916106df602092611b19565b5051428152a2005b606490602084519162461bcd60e51b835282015260156024820152742932b630bc9d1024b73b30b634b2103a3930b232b960591b6044820152fd5b50903461021c57602090602060031936011261021c57610740610a81565b926107496114af565b6001600160a01b039384169283156108265760025494915f5b8681106107c35750505050680100000000000000008310156107b057506107928260016103499401600255610ae0565b90919060018060a01b038084549260031b9316831b921b1916179055565b604190634e487b7160e01b5f525260245ffd5b85846107ce83610ae0565b90549060031b1c16146107e357600101610762565b815162461bcd60e51b8152808601849052601e60248201527f52656c61793a2076616c696461746f7220616c726561647920616464656400006044820152606490fd5b815162461bcd60e51b8152602081850152601860248201527f52656c61793a20696e76616c69642076616c696461746f7200000000000000006044820152606490fd5b3461021c57602036600319011261021c57610349610885610a81565b61088d6114af565b61107e565b503461021c578060031936011261021c576108ab610a97565b90336001600160a01b038316036108c757506103499135611cbd565b5163334bd91960e11b81529050fd5b503461021c578060031936011261021c5761034991356108f96001610333610a97565b611bb1565b503461021c575f36600319011261021c5760209061091a610fbc565b9051908152f35b503461021c575f36600319011261021c57517f00000000000000000000000000000000000000000000000000000000000000006001600160a01b03168152602090f35b503461021c57602036600319011261021c57602091355f525f82526001815f2001549051908152f35b503461021c575f36600319011261021c57517f00000000000000000000000000000000000000000000000000000000000000006001600160a01b03168152602090f35b503461021c575f36600319011261021c576020906001549051908152f35b503461021c57608036600319011261021c576103d0610394610a0e610a81565b610a16611449565b610a1e61152b565b606435906044359060243590610c36565b833461021c57602036600319011261021c57359063ffffffff60e01b821680920361021c57602091637965db0b60e01b8114908115610a70575b5015158152f35b6301ffc9a760e01b14905083610a69565b600435906001600160a01b038216820361021c57565b602435906001600160a01b038216820361021c57565b9081518082526020808093019301915f5b828110610acc575050505090565b835185529381019392810192600101610abe565b600254811015610b155760025f527f405787fa12a823e0f2b7631cc41b3ba8828b3321ca811111fa75cd3aa3bb5ace01905f90565b634e487b7160e01b5f52603260045260245ffd5b610120810190811067ffffffffffffffff821117610b4657604052565b634e487b7160e01b5f52604160045260245ffd5b6020810190811067ffffffffffffffff821117610b4657604052565b90601f8019910116810190811067ffffffffffffffff821117610b4657604052565b9998979490936101009793610be7979395610120968d60018060a01b0380931690521660208d015260408c015260608b015260808a015260a089015260c08801528060e0880152860190610aad565b930152565b67ffffffffffffffff8111610b465760051b60200190565b90610c0e82610bec565b610c1b6040519182610b76565b8281528092610c2c601f1991610bec565b0190602036910137565b604080516327b57cdd60e01b815260209695919490939291906001600160a01b037f0000000000000000000000000000000000000000000000000000000000000000811691908987600481865afa968715610f91575f97610f59575b5087516001600160a01b0388168152602081018790526040810183905242606082015290851690819060019033907f3c993baaca991e07eb2a2feede42d2f71d57515b7c18dcc2cb01b5445896760e90608090a4610cf28287898861159e565b90815115610efd5788519063f8b2cb4f60e01b825260048201528a81602481875afa908115610ef357868a8d96948b9896948b945f91610eb1575b50818901519183015192516001600160a01b0394851681529990931660208a0152604089019390935260608801849052608088019190915260a087019190915260c08601524260e0860152610dee9460019033907f49a57059450b0fce801b6cee682f79b6098aeb25389bded901677399b8108df6908061010081015b0390a3426001555f895180968195829463458b285160e11b84528b8b6004860190949392606092608083019660018060a01b03168352602083015260408201520152565b03925af1968715610ea7575f97610e70575b505083516001600160a01b0391821681529216602083015260408201526060810184905242608082015260019033907fff622c9950b77a7bfb4fafbd95735ca35b6dd088aa028764d60ef1ab070c6e88908060a081015b0390a35191610e6583610b5a565b5f83525f3681379190565b9080929750819493943d8311610ea0575b610e8b8183610b76565b8101031261021c575194909190806001610e00565b503d610e81565b85513d5f823e3d90fd5b995050969250505085813d8311610eec575b610ecd8183610b76565b8101031261021c57935187948b949091889188918c9190610daa610d2d565b503d610ec3565b89513d5f823e3d90fd5b509798610f5193507ffa84a5fea0b49ad7fb02be3a8d417955c897f613be3bd94d615b7117f24a3e8696979195949250880151978181015161010060808301519201998a519351978897339b42978a610b98565b0390a2515f91565b9096508981813d8311610f8a575b610f718183610b76565b8101031261021c5751868116810361021c57955f610c92565b503d610f67565b88513d5f823e3d90fd5b91908203918211610fa857565b634e487b7160e01b5f52601160045260245ffd5b6001548015611079576040516338f3180960e11b8152906020826004817f00000000000000000000000000000000000000000000000000000000000000006001600160a01b03165afa91821561106e575f92611038575b5061101e9042610f9b565b818110156110325761102f91610f9b565b90565b50505f90565b9091506020813d602011611066575b8161105460209383610b76565b8101031261021c57519061101e611013565b3d9150611047565b6040513d5f823e3d90fd5b505f90565b600290600254915f5b8381106110d35760405162461bcd60e51b815260206004820152601a60248201527f52656c61793a2076616c696461746f72206e6f7420666f756e640000000000006044820152606490fd5b6110dc81610ae0565b90546003916001600160a01b039190831b1c811685821614611102575050600101611087565b929350935f1991828201918211610fa8576107928461112361113094610ae0565b905490891b1c1691610ae0565b8254801561115157019261114384610ae0565b81939154921b1b1916905555565b634e487b7160e01b5f52603160045260245ffd5b604080516001600160a01b0384811682526020820186905281830187905242606083015283811698979296949594909189905f9033907f3c993baaca991e07eb2a2feede42d2f71d57515b7c18dcc2cb01b5445896760e90608090a46111cd8186888761159e565b918251156113e1577f0000000000000000000000000000000000000000000000000000000000000000169187519963f8b2cb4f60e01b8b5260048b01526020998a81602481875afa908115610ef357868a8d96948b9896948b945f9161139f575b50818901519183015192516001600160a01b0394851681529990931660208a0152604089019390935260608801849052608088019190915260a087019190915260c08601524260e08601526112fd945f9033907f49a57059450b0fce801b6cee682f79b6098aeb25389bded901677399b8108df6908061010081015b0390a3426001558851631dbae25960e21b81526001600160a01b038088166004830152891660248201526044810188905260648101919091526084810192909252909283919082905f90829060a4820190565b03925af1968715610ea7575f97611369575b505083516001600160a01b039182168152921660208301526040820152606081018490524260808201525f9033907fff622c9950b77a7bfb4fafbd95735ca35b6dd088aa028764d60ef1ab070c6e88908060a08101610e57565b9080929750819493943d8311611398575b6113848183610b76565b8101031261021c575194909190805f61130f565b503d61137a565b995050969250505085813d83116113da575b6113bb8183610b76565b8101031261021c57935187948b949091889188918c91906112aa61122e565b503d6113b1565b50939290969750610f5191507ffa84a5fea0b49ad7fb02be3a8d417955c897f613be3bd94d615b7117f24a3e8694956020880151978181015161010060808301519201998a519351978897339b42978a610b98565b81810292918115918404141715610fa857565b335f9081527f6ac0a3cc639bf037b4b0f42fc91a4de27374e7898883f5a05dc61a01ae17095560205260409020545f80516020611eef8339815191529060ff16156114915750565b6044906040519063e2517d3f60e01b82523360048301526024820152fd5b335f9081527fc39f11a9300b508470eaed31f5842ba08c93181bcbe6a7fe34039aa7f2b8074260205260409020547f3b5d4cc60d3ec3516ee8ae083bd60934f6eb2a6c54b1229985c41bfb092b26039060ff16156114915750565b805f525f60205260405f20335f5260205260ff60405f205416156114915750565b7f9b779b17422d0df92223018b32b4d1fa46e071723d6817e2486d003becc55f00600281541461155b5760029055565b604051633ee5aeb560e01b8152600490fd5b5190811515820361021c57565b805160011015610b155760400190565b8051821015610b155760209160051b010190565b60405193926115ac85610b29565b5f85525f60208601525f60408601525f60608601525f60808601525f60a08601525f60c08601525f60e08601526060610100860152604051634656988b60e01b815260208160048160018060a01b037f0000000000000000000000000000000000000000000000000000000000000000165afa90811561106e575f91611ae7575b5060208681019190915260405163c4aa739560e01b815290816004817f00000000000000000000000000000000000000000000000000000000000000006001600160a01b03165afa90811561106e575f91611ab5575b50604086810191909152516338f3180960e11b81526020816004817f00000000000000000000000000000000000000000000000000000000000000006001600160a01b03165afa90811561106e575f91611a83575b5060608601526001549283611a4f575b60405163c5924e9d60e01b81526001600160a01b0384811660048301528281166024830152602090829060449082907f0000000000000000000000000000000000000000000000000000000000000000165afa90811561106e575f91611a15575b5060405163f8b2cb4f60e01b81526001600160a01b038581166004830152602090829060249082907f0000000000000000000000000000000000000000000000000000000000000000165afa90811561106e575f916119e1575b506117bc816127109260a08b015260208a015190611436565b0460e08801526117ce86848487611d2f565b8060c089015260208801519560408901519060608a01519060808b01519060a08c01519260e08d0151946040519b6118058d610b29565b8c5260208c015260408b015260608a0152608089015260a088015260c087015260e0860152151561010085015260025492838060021b0460041484151715610fa8576118538460021b610c04565b945f965f5b8681106118a6575050505050505061186f82610c04565b905f5b83811061188757505061010083015215815290565b806118946001928461158a565b5161189f828661158a565b5201611872565b60406118b182610ae0565b905482516307d35e0360e31b81523360048201526001600160a01b0388811660248301528981166044830152606482018b905260848201879052875160a4830152602088015160c48301528785015160e48301526060880151610104830152608088015161012483015260a088015161014483015260c088015161016483015260e088015161018483015261010088015115156101a483015290939284926101c492849260031b9190911c165afa90811561106e575f905f926119a0575b501561197f575b50600101611858565b8991905f198314610fa85761199960018094019b8b61158a565b5290611976565b9150506040813d6040116119d9575b816119bc60409383610b76565b8101031261021c5760206119cf8261156d565b910151905f61196f565b3d91506119af565b90506020813d602011611a0d575b816119fc60209383610b76565b8101031261021c57516117bc6117a3565b3d91506119ef565b90506020813d602011611a47575b81611a3060209383610b76565b8101031261021c57611a419061156d565b5f611749565b3d9150611a23565b611a598442610f9b565b606087015190818110611a6e575b50506116e8565b611a7791610f9b565b60808701525f80611a67565b90506020813d602011611aad575b81611a9e60209383610b76565b8101031261021c57515f6116d8565b3d9150611a91565b90506020813d602011611adf575b81611ad060209383610b76565b8101031261021c57515f611683565b3d9150611ac3565b90506020813d602011611b11575b81611b0260209383610b76565b8101031261021c57515f61162d565b3d9150611af5565b6001600160a01b03165f8181527f6ac0a3cc639bf037b4b0f42fc91a4de27374e7898883f5a05dc61a01ae17095560205260409020545f80516020611eef833981519152919060ff1661103257815f525f60205260405f20815f5260205260405f20600160ff1982541617905533917f2f8788117e7eff1d82e926ec794901d17c78024a50270940304540a733656f0d5f80a4600190565b90815f525f60205260405f209060018060a01b031690815f5260205260ff60405f205416155f1461103257815f525f60205260405f20815f5260205260405f20600160ff1982541617905533917f2f8788117e7eff1d82e926ec794901d17c78024a50270940304540a733656f0d5f80a4600190565b6001600160a01b03165f8181527f6ac0a3cc639bf037b4b0f42fc91a4de27374e7898883f5a05dc61a01ae17095560205260409020545f80516020611eef833981519152919060ff161561103257815f525f60205260405f20815f5260205260405f2060ff19815416905533917ff6391f5c32d9c69d2a47ea670b442974b53935d1edc7fd64eb21e047a839171b5f80a4600190565b90815f525f60205260405f209060018060a01b031690815f5260205260ff60405f2054165f1461103257815f525f60205260405f20815f5260205260405f2060ff19815416905533917ff6391f5c32d9c69d2a47ea670b442974b53935d1edc7fd64eb21e047a839171b5f80a4600190565b91604092835190606082019367ffffffffffffffff9483811086821117610b46578652600283526020938484019187368437845115610b15576001600160a01b0393841683529093919083611d838461157a565b91169052865193849263d06ca61f60e01b845260448401916004850152886024850152518091526064830191905f5b87828210611ed557505050509181805f9403917f0000000000000000000000000000000000000000000000000000000000000000165afa928315610262575f93611e4a575b505050611e04915061157a565b51908181101561103257611e189082610f9b565b61271090818102918183041490151715610fa8578115611e36570490565b634e487b7160e01b5f52601260045260245ffd5b909192503d805f843e611e5d8184610b76565b820191838184031261021c57805191821161021c570181601f8201121561021c57805190611e96611e8d83610bec565b95519586610b76565b818552838086019260051b82010192831161021c578301905b828210611ec65750505050611e04905f8080611df7565b81518152908301908301611eaf565b8351871685528795509384019390920191600101611db256fefacaf2747a7486cf5730e9265973fb54447d3ace6e7e4711f6360826b0731941a264697066735822122061df7d68649b06164eb4459f3ac1bd205674990b465f88fbccc97493a8c1e86c64736f6c634300081900332f8788117e7eff1d82e926ec794901d17c78024a50270940304540a733656f0dad3228b676f7d3cd4284a5443f17f1962b36e491b30a40b2405849e597ba5fb5",
    "linkReferences": {}
  },
  "methodIdentifiers": {
    "DAO_ROLE()": "e9c26518",
    "DEFAULT_ADMIN_ROLE()": "a217fddf",
    "PAIR_WHITELIST()": "60ffe87e",
    "PARAM_STORE()": "1ef9c199",
    "SAUCERSWAP_ROUTER()": "fb5a252d",
    "TRADER_ROLE()": "f0a56fc8",
    "TREASURY()": "2d2c5565",
    "VALIDATORS(uint256)": "9f2842b2",
    "addValidator(address)": "4d238c8e",
    "authorizeTrader(address)": "57b79a23",
    "getCooldownRemaining()": "2d89fd5d",
    "getMaxAllowedTradeAmount(address)": "fc72a61a",
    "getRiskParameters()": "ba94626c",
    "getRoleAdmin(bytes32)": "248a9ca3",
    "grantRole(bytes32,address)": "2f2ff15d",
    "hasRole(bytes32,address)": "91d14854",
    "lastTradeTimestamp()": "19f18dee",
    "proposeBuybackAndBurn(address,uint256,uint256,uint256)": "158bf337",
    "proposeSwap(address,address,uint256,uint256,uint256)": "d1b092a7",
    "removeValidator(address)": "40a141ff",
    "renounceRole(bytes32,address)": "36568abe",
    "revokeRole(bytes32,address)": "d547741f",
    "revokeTrader(address)": "6a418fcb",
    "supportsInterface(bytes4)": "01ffc9a7"
  },
  "id": 89
}