{
  "abi": [
    {
      "type": "constructor",
      "inputs": [
        {
          "name": "_htkToken",
          "type": "address",
          "internalType": "address"
        },
        {
          "name": "_saucerswapRouter",
          "type": "address",
          "internalType": "address"
        },
        {
          "name": "_admin",
          "type": "address",
          "internalType": "address"
        },
        {
          "name": "_relay",
          "type": "address",
          "internalType": "address"
        }
      ],
      "stateMutability": "nonpayable"
    },
    {
      "type": "function",
      "name": "DAO_ROLE",
      "inputs": [],
      "outputs": [
        {
          "name": "",
          "type": "bytes32",
          "internalType": "bytes32"
        }
      ],
      "stateMutability": "view"
    },
    {
      "type": "function",
      "name": "DEFAULT_ADMIN_ROLE",
      "inputs": [],
      "outputs": [
        {
          "name": "",
          "type": "bytes32",
          "internalType": "bytes32"
        }
      ],
      "stateMutability": "view"
    },
    {
      "type": "function",
      "name": "HTK_TOKEN",
      "inputs": [],
      "outputs": [
        {
          "name": "",
          "type": "address",
          "internalType": "address"
        }
      ],
      "stateMutability": "view"
    },
    {
      "type": "function",
      "name": "RELAY_ROLE",
      "inputs": [],
      "outputs": [
        {
          "name": "",
          "type": "bytes32",
          "internalType": "bytes32"
        }
      ],
      "stateMutability": "view"
    },
    {
      "type": "function",
      "name": "SAUCERSWAP_ROUTER",
      "inputs": [],
      "outputs": [
        {
          "name": "",
          "type": "address",
          "internalType": "contract ISaucerswapRouter"
        }
      ],
      "stateMutability": "view"
    },
    {
      "type": "function",
      "name": "deposit",
      "inputs": [
        {
          "name": "token",
          "type": "address",
          "internalType": "address"
        },
        {
          "name": "amount",
          "type": "uint256",
          "internalType": "uint256"
        }
      ],
      "outputs": [],
      "stateMutability": "nonpayable"
    },
    {
      "type": "function",
      "name": "executeBuybackAndBurn",
      "inputs": [
        {
          "name": "tokenIn",
          "type": "address",
          "internalType": "address"
        },
        {
          "name": "amountIn",
          "type": "uint256",
          "internalType": "uint256"
        },
        {
          "name": "amountOutMin",
          "type": "uint256",
          "internalType": "uint256"
        },
        {
          "name": "deadline",
          "type": "uint256",
          "internalType": "uint256"
        }
      ],
      "outputs": [
        {
          "name": "burnedAmount",
          "type": "uint256",
          "internalType": "uint256"
        }
      ],
      "stateMutability": "nonpayable"
    },
    {
      "type": "function",
      "name": "executeSwap",
      "inputs": [
        {
          "name": "tokenIn",
          "type": "address",
          "internalType": "address"
        },
        {
          "name": "tokenOut",
          "type": "address",
          "internalType": "address"
        },
        {
          "name": "amountIn",
          "type": "uint256",
          "internalType": "uint256"
        },
        {
          "name": "amountOutMin",
          "type": "uint256",
          "internalType": "uint256"
        },
        {
          "name": "deadline",
          "type": "uint256",
          "internalType": "uint256"
        }
      ],
      "outputs": [
        {
          "name": "amountReceived",
          "type": "uint256",
          "internalType": "uint256"
        }
      ],
      "stateMutability": "nonpayable"
    },
    {
      "type": "function",
      "name": "getBalance",
      "inputs": [
        {
          "name": "token",
          "type": "address",
          "internalType": "address"
        }
      ],
      "outputs": [
        {
          "name": "",
          "type": "uint256",
          "internalType": "uint256"
        }
      ],
      "stateMutability": "view"
    },
    {
      "type": "function",
      "name": "getRoleAdmin",
      "inputs": [
        {
          "name": "role",
          "type": "bytes32",
          "internalType": "bytes32"
        }
      ],
      "outputs": [
        {
          "name": "",
          "type": "bytes32",
          "internalType": "bytes32"
        }
      ],
      "stateMutability": "view"
    },
    {
      "type": "function",
      "name": "grantRole",
      "inputs": [
        {
          "name": "role",
          "type": "bytes32",
          "internalType": "bytes32"
        },
        {
          "name": "account",
          "type": "address",
          "internalType": "address"
        }
      ],
      "outputs": [],
      "stateMutability": "nonpayable"
    },
    {
      "type": "function",
      "name": "hasRole",
      "inputs": [
        {
          "name": "role",
          "type": "bytes32",
          "internalType": "bytes32"
        },
        {
          "name": "account",
          "type": "address",
          "internalType": "address"
        }
      ],
      "outputs": [
        {
          "name": "",
          "type": "bool",
          "internalType": "bool"
        }
      ],
      "stateMutability": "view"
    },
    {
      "type": "function",
      "name": "renounceRole",
      "inputs": [
        {
          "name": "role",
          "type": "bytes32",
          "internalType": "bytes32"
        },
        {
          "name": "callerConfirmation",
          "type": "address",
          "internalType": "address"
        }
      ],
      "outputs": [],
      "stateMutability": "nonpayable"
    },
    {
      "type": "function",
      "name": "revokeRole",
      "inputs": [
        {
          "name": "role",
          "type": "bytes32",
          "internalType": "bytes32"
        },
        {
          "name": "account",
          "type": "address",
          "internalType": "address"
        }
      ],
      "outputs": [],
      "stateMutability": "nonpayable"
    },
    {
      "type": "function",
      "name": "supportsInterface",
      "inputs": [
        {
          "name": "interfaceId",
          "type": "bytes4",
          "internalType": "bytes4"
        }
      ],
      "outputs": [
        {
          "name": "",
          "type": "bool",
          "internalType": "bool"
        }
      ],
      "stateMutability": "view"
    },
    {
      "type": "function",
      "name": "updateRelay",
      "inputs": [
        {
          "name": "oldRelay",
          "type": "address",
          "internalType": "address"
        },
        {
          "name": "newRelay",
          "type": "address",
          "internalType": "address"
        }
      ],
      "outputs": [],
      "stateMutability": "nonpayable"
    },
    {
      "type": "function",
      "name": "withdraw",
      "inputs": [
        {
          "name": "token",
          "type": "address",
          "internalType": "address"
        },
        {
          "name": "recipient",
          "type": "address",
          "internalType": "address"
        },
        {
          "name": "amount",
          "type": "uint256",
          "internalType": "uint256"
        }
      ],
      "outputs": [],
      "stateMutability": "nonpayable"
    },
    {
      "type": "event",
      "name": "Burned",
      "inputs": [
        {
          "name": "amount",
          "type": "uint256",
          "indexed": false,
          "internalType": "uint256"
        },
        {
          "name": "initiator",
          "type": "address",
          "indexed": true,
          "internalType": "address"
        },
        {
          "name": "timestamp",
          "type": "uint256",
          "indexed": false,
          "internalType": "uint256"
        }
      ],
      "anonymous": false
    },
    {
      "type": "event",
      "name": "BuybackExecuted",
      "inputs": [
        {
          "name": "tokenIn",
          "type": "address",
          "indexed": true,
          "internalType": "address"
        },
        {
          "name": "amountIn",
          "type": "uint256",
          "indexed": false,
          "internalType": "uint256"
        },
        {
          "name": "htkReceived",
          "type": "uint256",
          "indexed": false,
          "internalType": "uint256"
        },
        {
          "name": "initiator",
          "type": "address",
          "indexed": true,
          "internalType": "address"
        },
        {
          "name": "timestamp",
          "type": "uint256",
          "indexed": false,
          "internalType": "uint256"
        }
      ],
      "anonymous": false
    },
    {
      "type": "event",
      "name": "Deposited",
      "inputs": [
        {
          "name": "token",
          "type": "address",
          "indexed": true,
          "internalType": "address"
        },
        {
          "name": "depositor",
          "type": "address",
          "indexed": true,
          "internalType": "address"
        },
        {
          "name": "amount",
          "type": "uint256",
          "indexed": false,
          "internalType": "uint256"
        },
        {
          "name": "timestamp",
          "type": "uint256",
          "indexed": false,
          "internalType": "uint256"
        }
      ],
      "anonymous": false
    },
    {
      "type": "event",
      "name": "RelayUpdated",
      "inputs": [
        {
          "name": "oldRelay",
          "type": "address",
          "indexed": true,
          "internalType": "address"
        },
        {
          "name": "newRelay",
          "type": "address",
          "indexed": true,
          "internalType": "address"
        },
        {
          "name": "timestamp",
          "type": "uint256",
          "indexed": false,
          "internalType": "uint256"
        }
      ],
      "anonymous": false
    },
    {
      "type": "event",
      "name": "RoleAdminChanged",
      "inputs": [
        {
          "name": "role",
          "type": "bytes32",
          "indexed": true,
          "internalType": "bytes32"
        },
        {
          "name": "previousAdminRole",
          "type": "bytes32",
          "indexed": true,
          "internalType": "bytes32"
        },
        {
          "name": "newAdminRole",
          "type": "bytes32",
          "indexed": true,
          "internalType": "bytes32"
        }
      ],
      "anonymous": false
    },
    {
      "type": "event",
      "name": "RoleGranted",
      "inputs": [
        {
          "name": "role",
          "type": "bytes32",
          "indexed": true,
          "internalType": "bytes32"
        },
        {
          "name": "account",
          "type": "address",
          "indexed": true,
          "internalType": "address"
        },
        {
          "name": "sender",
          "type": "address",
          "indexed": true,
          "internalType": "address"
        }
      ],
      "anonymous": false
    },
    {
      "type": "event",
      "name": "RoleRevoked",
      "inputs": [
        {
          "name": "role",
          "type": "bytes32",
          "indexed": true,
          "internalType": "bytes32"
        },
        {
          "name": "account",
          "type": "address",
          "indexed": true,
          "internalType": "address"
        },
        {
          "name": "sender",
          "type": "address",
          "indexed": true,
          "internalType": "address"
        }
      ],
      "anonymous": false
    },
    {
      "type": "event",
      "name": "SwapExecuted",
      "inputs": [
        {
          "name": "tokenIn",
          "type": "address",
          "indexed": true,
          "internalType": "address"
        },
        {
          "name": "tokenOut",
          "type": "address",
          "indexed": true,
          "internalType": "address"
        },
        {
          "name": "amountIn",
          "type": "uint256",
          "indexed": false,
          "internalType": "uint256"
        },
        {
          "name": "amountOut",
          "type": "uint256",
          "indexed": false,
          "internalType": "uint256"
        },
        {
          "name": "initiator",
          "type": "address",
          "indexed": true,
          "internalType": "address"
        },
        {
          "name": "timestamp",
          "type": "uint256",
          "indexed": false,
          "internalType": "uint256"
        }
      ],
      "anonymous": false
    },
    {
      "type": "event",
      "name": "Withdrawn",
      "inputs": [
        {
          "name": "token",
          "type": "address",
          "indexed": true,
          "internalType": "address"
        },
        {
          "name": "recipient",
          "type": "address",
          "indexed": true,
          "internalType": "address"
        },
        {
          "name": "amount",
          "type": "uint256",
          "indexed": false,
          "internalType": "uint256"
        },
        {
          "name": "initiator",
          "type": "address",
          "indexed": true,
          "internalType": "address"
        },
        {
          "name": "timestamp",
          "type": "uint256",
          "indexed": false,
          "internalType": "uint256"
        }
      ],
      "anonymous": false
    },
    {
      "type": "error",
      "name": "AccessControlBadConfirmation",
      "inputs": []
    },
    {
      "type": "error",
      "name": "AccessControlUnauthorizedAccount",
      "inputs": [
        {
          "name": "account",
          "type": "address",
          "internalType": "address"
        },
        {
          "name": "neededRole",
          "type": "bytes32",
          "internalType": "bytes32"
        }
      ]
    },
    {
      "type": "error",
      "name": "ReentrancyGuardReentrantCall",
      "inputs": []
    },
    {
      "type": "error",
      "name": "SafeERC20FailedOperation",
      "inputs": [
        {
          "name": "token",
          "type": "address",
          "internalType": "address"
        }
      ]
    }
  ],
  "bytecode": {
    "object": "0x60c03461020557601f611acb38819003918201601f191683019291906001600160401b038411838510176102095781608092849260409687528339810103126102055761004b8161021d565b906100586020820161021d565b61006f606061006886850161021d565b930161021d565b60018055926001600160a01b0391828216156101c157821691821561017d5780841615610139578416156100f55760805260a0526100c191906100bb906100b581610231565b5061029d565b5061033b565b50516116b790816103d482396080518181816104b60152610f22015260a05181818160ee0152818161053001526109c20152f35b845162461bcd60e51b815260206004820152601760248201527f54726561737572793a20496e76616c69642072656c61790000000000000000006044820152606490fd5b855162461bcd60e51b815260206004820152601760248201527f54726561737572793a20496e76616c69642061646d696e0000000000000000006044820152606490fd5b855162461bcd60e51b815260206004820152601860248201527f54726561737572793a20496e76616c696420726f7574657200000000000000006044820152606490fd5b855162461bcd60e51b815260206004820152601b60248201527f54726561737572793a20496e76616c69642048544b20746f6b656e00000000006044820152606490fd5b5f80fd5b634e487b7160e01b5f52604160045260245ffd5b51906001600160a01b038216820361020557565b6001600160a01b03165f8181525f80516020611aab833981519152602052604090205460ff16610298575f8181525f80516020611aab83398151915260205260408120805460ff191660011790553391905f80516020611a8b8339815191528180a4600190565b505f90565b6001600160a01b03165f8181527fc39f11a9300b508470eaed31f5842ba08c93181bcbe6a7fe34039aa7f2b8074260205260409020547f3b5d4cc60d3ec3516ee8ae083bd60934f6eb2a6c54b1229985c41bfb092b2603919060ff1661033557815f525f60205260405f20815f5260205260405f20600160ff1982541617905533915f80516020611a8b8339815191525f80a4600190565b50505f90565b6001600160a01b03165f8181527f8a82f9e0504fbbd4e27d52a5bf0121b2797f48988a09544f7c17949deb596bc460205260409020547f077a1d526a4ce8a773632ab13b4fbbf1fcc954c3dab26cd27ea0e2a6750da5d7919060ff1661033557815f525f60205260405f20815f5260205260405f20600160ff1982541617905533915f80516020611a8b8339815191525f80a460019056fe6080604090808252600480361015610015575f80fd5b5f3560e01c91826301ffc9a714610fa1575081630442182314610f7a578163248a9ca314610f5157816327b57cdd14610f0e5781632f2ff15d14610ee657816336568abe14610ea2578163382ed85314610d6d57816347e7ef2414610c9157816376eb8964146109085781638b1650a21461046457816391d1485414610421578163a217fddf14610407578163d547741f146103cc578163d9caed12146101ea578163e9c26518146101b0578163f8b2cb4f14610121575063fb5a252d146100db575f80fd5b3461011d575f36600319011261011d57517f00000000000000000000000000000000000000000000000000000000000000006001600160a01b03168152602090f35b5f80fd5b90503461011d576020918260031936011261011d57826001600160a01b03610147611009565b169260248351809581936370a0823160e01b835230908301525afa9182156101a6575f92610177575b5051908152f35b9091508281813d831161019f575b61018f818361112b565b8101031261011d5751905f610170565b503d610185565b50513d5f823e3d90fd5b823461011d575f36600319011261011d57602090517f3b5d4cc60d3ec3516ee8ae083bd60934f6eb2a6c54b1229985c41bfb092b26038152f35b90503461011d57606036600319011261011d57610205611009565b61020d610ff3565b604435937f3b5d4cc60d3ec3516ee8ae083bd60934f6eb2a6c54b1229985c41bfb092b2603805f526020905f8252825f20335f52825260ff835f205416156103ae57506102586115d9565b6001600160a01b039384169361026f85151561101f565b831694851561036d5761028387151561106b565b8251906370a0823160e01b825230908201528181602481885afa908115610363579087915f91610330575b50906103177fbaea51c8984e73dc5c9280aaa4fa5acae97ec9bb4ab751976d63c7ae2cf011da956102e48361031d95101561114d565b855163a9059cbb60e01b868201526001600160a01b0391909116602482015260448082019390935291825260648261112b565b856115fc565b815195865242908601523394a460018055005b809250838092503d831161035c575b610349818361112b565b8101031261011d575186906103176102ae565b503d61033f565b83513d5f823e3d90fd5b915162461bcd60e51b815291820152601b60248201527f54726561737572793a20496e76616c696420726563697069656e7400000000006044820152606490fd5b825163e2517d3f60e01b815233818801526024810191909152604490fd5b823461011d578060031936011261011d57610405913561040060016103ef610ff3565b93835f525f6020525f20015461139c565b611567565b005b823461011d575f36600319011261011d57602090515f8152f35b823461011d578060031936011261011d5760209161043d610ff3565b90355f525f8352815f209060018060a01b03165f52825260ff815f20541690519015158152f35b90503461011d57608036600319011261011d5761047f611009565b9160448035926064359060248035610495611336565b61049d6115d9565b6001600160a01b039788166104b381151561101f565b887f000000000000000000000000000000000000000000000000000000000000000016948582146108bd576104e983151561106b565b6104f5428210156110af565b87516370a0823160e01b808252308783015260209b90918c818881885afa80156108645786905f9061088c575b61052e9250101561114d565b7f00000000000000000000000000000000000000000000000000000000000000001690895163095ea7b360e01b9081815283898201525f888201528d818c815f8a5af1801561082d57908e9161086e575b50508a519081526001600160a01b038316888201908152602081018790528d908290819060400103815f895af1801561086457610837575b5089516105c3816110fb565b600281528a368e830137846105d7826111b1565b52886105e2826111d2565b528a519282845230898501528d8489818d5afa93841561082d57908d888e8c95945f986107eb575b50906106315f96979899879351988997889687956338ed173960e01b87523093870161125e565b03925af180156107e1576107bf575b50885190815230868201528a8186818a5afa9081156107b5575f91610786575b506106779161066e916112c9565b988910156112ea565b86519182526020820188905242604083015233917f3cd631314c9f77a203b841bc3d555b2d95cbfd99e9ba285b5e500101617261ca90606090a3851561074557845163a9059cbb60e01b8882015261dead82820152848101879052938452608084019167ffffffffffffffff83118584101761073457505083526106fb91906115fc565b805182815242848201527f7a6396f9141e42bbd82eddb43e30077ef07aaafcd4ee3dfbd6adb1dca8f2445a823392a26001805551908152f35b604190634e487b7160e01b5f52525ffd5b845162461bcd60e51b8152918201879052601a908201527f54726561737572793a205a65726f206275726e20616d6f756e7400000000000081840152606490fd5b90508a81813d83116107ae575b61079d818361112b565b8101031261011d5751610677610660565b503d610793565b89513d5f823e3d90fd5b6107da903d805f833e6107d2818361112b565b8101906111e2565b505f610640565b8a513d5f823e3d90fd5b9550505050949293508d82813d8311610826575b610809818361112b565b8101031261011d57905191939192918891908d888e61063161060a565b503d6107ff565b8c513d5f823e3d90fd5b610856908d803d1061085d575b61084e818361112b565b810190611199565b505f6105b7565b503d610844565b8b513d5f823e3d90fd5b8161088492903d1061085d5761084e818361112b565b508c5f61057f565b50508c81813d83116108b6575b6108a3818361112b565b8101031261011d578561052e9151610522565b503d610899565b875162461bcd60e51b81526020818701526021818601527f54726561737572793a2043616e6e6f7420737761702048544b20666f7220485481890152604b60f81b6064820152608490fd5b823461011d5760a036600319011261011d57610922611009565b9061092b610ff3565b606435926044359160843561093e611336565b6109466115d9565b6001600160a01b0392831691839083151580610c86575b6109669061101f565b1692838314610c4c5761097a85151561106b565b610986428310156110af565b8551976370a0823160e01b91828a5230828b01526020998a81602481895afa80156107b55788905f90610c1b575b6109c09250101561114d565b7f00000000000000000000000000000000000000000000000000000000000000001692875163095ea7b360e01b9081815285848201525f60248201528b816044815f8b5af180156107e157610bfe575b5088519081526001600160a01b038516838201908152602081018990528b908290819060400103815f8a5af180156107b557610be1575b50875193610a54856110fb565b6002855288368c87013785610a68866111b1565b5286610a73866111d2565b5288519484865230848701528b866024818b5afa9586156107e157908b8b8b94935f99610baa575b505f94939291610ac2869251978896879586946338ed173960e01b865230928d870161125e565b03925af18015610ba057610b86575b50865191825230908201528781602481875afa908115610b7c575f91610b4d575b50610b0991610b00916112c9565b958610156112ea565b83519283526020830185905242604084015233927fd008db8af2b70a4c666c8f38a2a22e7012653ea543fa986a4ee04a1f7ad8924790606090a46001805551908152f35b90508781813d8311610b75575b610b64818361112b565b8101031261011d5751610b09610af2565b503d610b5a565b86513d5f823e3d90fd5b610b99903d805f833e6107d2818361112b565b5089610ad1565b88513d5f823e3d90fd5b939850505091508b81813d8311610bda575b610bc6818361112b565b8101031261011d57519488918b8b5f610a9b565b503d610bbc565b610bf7908b3d8d1161085d5761084e818361112b565b508a610a47565b610c14908c8d3d1061085d5761084e818361112b565b508b610a10565b50508a81813d8311610c45575b610c32818361112b565b8101031261011d57876109c091516109b4565b503d610c28565b855162461bcd60e51b81526020818a015260146024820152732a3932b0b9bab93c9d1029b0b6b2903a37b5b2b760611b6044820152606490fd5b50808216151561095d565b90503461011d578160031936011261011d57610cab611009565b9160243592610cb86115d9565b6001600160a01b031691610ccd83151561101f565b610cd884151561106b565b81516323b872dd60e01b6020820152336024820152306044820152606480820186905281529060a082019067ffffffffffffffff821183831017610d5a57508291610d46917ff5681f9d0db1b911ac18ee83d515a1cf1051853a9eae418316a2fdf7dea427c59452846115fc565b80519384524260208501523393a360018055005b604190634e487b7160e01b5f525260245ffd5b90503461011d578160031936011261011d57610d87611009565b91610d90610ff3565b5f80525f602052815f20335f5260205260ff825f20541615610e86576001600160a01b0381811694908515610e4357811693858514610e09575091610e01602092610dfb7f93c8fc8f4dbec7bd8c38f304f82e6632181c9225284b4fae152c7f47a32f9b55956114d1565b506113bd565b5051428152a3005b606490602085519162461bcd60e51b8352820152601460248201527354726561737572793a2053616d652072656c617960601b6044820152fd5b835162461bcd60e51b8152602081870152601760248201527f54726561737572793a20496e76616c69642072656c61790000000000000000006044820152606490fd5b815163e2517d3f60e01b815233818501525f6024820152604490fd5b823461011d578060031936011261011d57610ebb610ff3565b90336001600160a01b03831603610ed757506104059135611567565b5163334bd91960e11b81529050fd5b823461011d578060031936011261011d576104059135610f0960016103ef610ff3565b61145b565b823461011d575f36600319011261011d57517f00000000000000000000000000000000000000000000000000000000000000006001600160a01b03168152602090f35b823461011d57602036600319011261011d57602091355f525f82526001815f2001549051908152f35b823461011d575f36600319011261011d57602090515f805160206116628339815191528152f35b903461011d57602036600319011261011d57359063ffffffff60e01b821680920361011d57602091637965db0b60e01b8114908115610fe2575b5015158152f35b6301ffc9a760e01b14905083610fdb565b602435906001600160a01b038216820361011d57565b600435906001600160a01b038216820361011d57565b1561102657565b60405162461bcd60e51b815260206004820152601760248201527f54726561737572793a20496e76616c696420746f6b656e0000000000000000006044820152606490fd5b1561107257565b60405162461bcd60e51b8152602060048201526015602482015274151c99585cdd5c9e4e8816995c9bc8185b5bdd5b9d605a1b6044820152606490fd5b156110b657565b60405162461bcd60e51b815260206004820152601a60248201527f54726561737572793a204578706972656420646561646c696e650000000000006044820152606490fd5b6060810190811067ffffffffffffffff82111761111757604052565b634e487b7160e01b5f52604160045260245ffd5b90601f8019910116810190811067ffffffffffffffff82111761111757604052565b1561115457565b60405162461bcd60e51b815260206004820152601e60248201527f54726561737572793a20496e73756666696369656e742062616c616e636500006044820152606490fd5b9081602091031261011d5751801515810361011d5790565b8051156111be5760200190565b634e487b7160e01b5f52603260045260245ffd5b8051600110156111be5760400190565b90602090818382031261011d57825167ffffffffffffffff9384821161011d570181601f8201121561011d578051938411611117578360051b906040519461122c8584018761112b565b8552838086019282010192831161011d578301905b82821061124f575050505090565b81518152908301908301611241565b9291909594939560a08401908452602091602085015260a060408501528251809152602060c085019301915f5b8281106112ac5750505050906080919460018060a01b031660608201520152565b83516001600160a01b03168552938101939281019260010161128b565b919082039182116112d657565b634e487b7160e01b5f52601160045260245ffd5b156112f157565b60405162461bcd60e51b815260206004820152601d60248201527f54726561737572793a20496e73756666696369656e74206f75747075740000006044820152606490fd5b335f9081527f8a82f9e0504fbbd4e27d52a5bf0121b2797f48988a09544f7c17949deb596bc460205260409020545f805160206116628339815191529060ff161561137e5750565b6044906040519063e2517d3f60e01b82523360048301526024820152fd5b805f525f60205260405f20335f5260205260ff60405f2054161561137e5750565b6001600160a01b03165f8181527f8a82f9e0504fbbd4e27d52a5bf0121b2797f48988a09544f7c17949deb596bc460205260409020545f80516020611662833981519152919060ff1661145557815f525f60205260405f20815f5260205260405f20600160ff1982541617905533917f2f8788117e7eff1d82e926ec794901d17c78024a50270940304540a733656f0d5f80a4600190565b50505f90565b90815f525f60205260405f209060018060a01b031690815f5260205260ff60405f205416155f1461145557815f525f60205260405f20815f5260205260405f20600160ff1982541617905533917f2f8788117e7eff1d82e926ec794901d17c78024a50270940304540a733656f0d5f80a4600190565b6001600160a01b03165f8181527f8a82f9e0504fbbd4e27d52a5bf0121b2797f48988a09544f7c17949deb596bc460205260409020545f80516020611662833981519152919060ff161561145557815f525f60205260405f20815f5260205260405f2060ff19815416905533917ff6391f5c32d9c69d2a47ea670b442974b53935d1edc7fd64eb21e047a839171b5f80a4600190565b90815f525f60205260405f209060018060a01b031690815f5260205260ff60405f2054165f1461145557815f525f60205260405f20815f5260205260405f2060ff19815416905533917ff6391f5c32d9c69d2a47ea670b442974b53935d1edc7fd64eb21e047a839171b5f80a4600190565b6002600154146115ea576002600155565b604051633ee5aeb560e01b8152600490fd5b905f602091828151910182855af115611656575f513d61164d57506001600160a01b0381163b155b61162b5750565b604051635274afe760e01b81526001600160a01b039091166004820152602490fd5b60011415611624565b6040513d5f823e3d90fdfe077a1d526a4ce8a773632ab13b4fbbf1fcc954c3dab26cd27ea0e2a6750da5d7a2646970667358221220ca02b12f53d9c4fa5d37bc3d633fdf9cdba164fe11fea0c24dd8ff1b860021e864736f6c634300081900332f8788117e7eff1d82e926ec794901d17c78024a50270940304540a733656f0dad3228b676f7d3cd4284a5443f17f1962b36e491b30a40b2405849e597ba5fb5",
    "linkReferences": {}
  },
  "methodIdentifiers": {
    "DAO_ROLE()": "e9c26518",
    "DEFAULT_ADMIN_ROLE()": "a217fddf",
    "HTK_TOKEN()": "27b57cdd",
    "RELAY_ROLE()": "04421823",
    "SAUCERSWAP_ROUTER()": "fb5a252d",
    "deposit(address,uint256)": "47e7ef24",
    "executeBuybackAndBurn(address,uint256,uint256,uint256)": "8b1650a2",
    "executeSwap(address,address,uint256,uint256,uint256)": "76eb8964",
    "getBalance(address)": "f8b2cb4f",
    "getRoleAdmin(bytes32)": "248a9ca3",
    "grantRole(bytes32,address)": "2f2ff15d",
    "hasRole(bytes32,address)": "91d14854",
    "renounceRole(bytes32,address)": "36568abe",
    "revokeRole(bytes32,address)": "d547741f",
    "supportsInterface(bytes4)": "01ffc9a7",
    "updateRelay(address,address)": "382ed853",
    "withdraw(address,address,uint256)": "d9caed12"
  },
  "id": 32
}